:20E0000010CE7FFFCE6FFF86031F8BBDE0ADBDE2C78EE62E86013F863BBDE0C78E01001F4A
:20E0200010BDE272BDE269108E00081F10BDE272BDE269BDE1E41F20BDE272BDE2691F10C0
:20E04000BDE272863BBDE0C7BDE2C78602C6808E02003F86018E02003FBDE33BBDE3412550
:20E06000EABDE39020E53402847FB1000D260A0C228601971E86FF97230C23358234029FF6
:20E0800020A684971F0C1F8601971E35820F200F210F1F3934169E202711D61ED11F250B48
:20E0A000BDE2699623A18526F70C1E35963402867FB7D0128636B7D0118626B7D013BDE05C
:20E0C0008D0F230F2235828109260220C78D973406F6D012C5802BF98A80B7D0123586B64D
:20E0E000D01185802AF9B6D010847F39862EBDE0C70F05BDE0DFBDE0C7A7800C055AC101E5
:20E100002F04810A26ED8600A784393410BDE3BCEC84BDE1C925021CFE35903410BDE3BC27
:20E12000EC81BDE1C9250F3402EC81BDE1C925061F8935021CFE3590BDE3832509DD06BDF3
:20E14000E3832502DD0839BDE341251B81012709BDE10B2517A7A020EEBDE16D1F89A6802E
:20E16000A7A05A26F920E01CFE109F0C39341086FF4C6D8026FB35903432A680A1A02603F3
:20E180004D26F735B23436BDE16D1F89A680A7A05A26F935B634028D081F893502444444CA
:20E1A00044840F8B90198940193981302D1881392E05840F1CFE3981412D0B81462E0780FA
:20E1C000418B0A1CFE391A0139BDE1AA34021F98BDE1AA484848481F8935025949594959A9
:20E1E000495949393437C60A34045F4F68656964594910A3662504A3666C656AE426EDED34
:20E2000066326135B734168658BDE0C7863DBDE0C71F10BDE2723596343634018643BDE056
:20E22000C78643BDE0C7863DBDE0C78EE333108E00083504A680592502862DBDE0C7313F13
:20E2400026F235B634061E898641BDE0C7863DBDE0C71E89BDE27E358634061F98BDE27EFB
:20E2600035863406BDE272358634068620BDE0C735863406BDE27E1F98BDE27E35863406BE
:20E2800017FF1217FE411F9817FE3C358634061F89862E17FE311F9817FE2C17FFCB3586CD
:20E2A00034168E02001F10BDE272863ABDE0C7BDE2695FA6805CD1052708BDE27EBDE2690D
:20E2C00020F1BDE2C735163406860DBDE0C7860ABDE0C735863412A6802705BDE0C720F789
:20E2E00035923406DC06BDE27235863436108EE329A680272281252619A6805F6DA5271B2E
:20E30000A1A527035C20F58EE32D5810AEA5ADA420DF17FDB220DA1CFE35961A0135968662
:20E320002516FDA3DC2416FFAC82256DCDE31FE324E324454648494E5A56C38E02009F0044
:20E340003934249E0086009704A68027228122272281202FF41F12313FA68081202EFA6F4F
:20E360008230019F001F219F0296041CFE35A41A0135A4860197041F12A68027E28122279D
:20E38000DE20F6BDE3412507BDE11B25021CFE39108EE5C2BDE3BC6DA427149E02BDE178A6
:20E3A0002705BDE3B220F0BDE3B210AE3E6EA41A01391F21BDE16D31A631233934165FA61D
:20E3C0008027158122271181612508817B24048020A71F5CD10523E735960F1C0F1D0F1B85
:20E3E0000A1B390F1B390D1B270B34061F894FD31CDD1C3506394F3F8101260417FED63B15
:20E400008102260417FCE53B34028EE61617FEC5350217FE6917FEAF3B8EE60417FEB63B50
:20E420008EE60D17FEAF3B8EE5EB17FEA83B8EE5F317FEA13B8EE5E317FE9A3BBDE1382574
:20E4400023109E06863ABDE28D1F20BDE272BDE26934208D1235208D1CBDE2C7109C082373
:20E46000E31CFE391A0139C608A6A0BDE27EBDE2695A26F539C608A6A081202C02862EBDD7
:20E48000E0C75A26F239BDE3831F02BDE14725021CFE39BDE3412509BDE11B25F51F01ADD8
:20E4A0008439BDE1382545108E0280BDE147253C9E06301F9F06C6089E0630019F06108E7B
:20E4C00002809C08241DA680A1A026EC9C082413109C0C25E3BDE2E2BDE2695A26DABDE23F
:20E4E000C720D3C1082703BDE2C71CFE39BDE1382520108E0280BDE14725179E06108E0216
:20E5000080A6A0A7809C082207109C0C25F320ED1CFE390F10BDE3832532DD06BDE383254D
:20E520002B9306DD0EBDE3832522DD089E06109E089C082715220E0A101F10D30E1F011F0A
:20E5400020D30E1F02DC0EBDE54D1CFE3934363402A684A7A40D1026063001312120043038
:20E560001F313F35028300012AE51CFE35B6BDE383254EDD06BDE38325479306DD0EBDE311
:20E5800083253EDD089E06109E089C08273186089711DC0E3406A680A1A027131F10BDE291
:20E5A00072BDE2690A112A07BDE2C78608971135068300012ADE961181082703BDE2C71C56
:20E5C000FE394300E56E4600E4ED4700E4934800E4A24D00E43C5400E5133A00E486580016
:20E5E000E3F6002A4E4D492A0D0A002A4952512A0D0A002A464952512A0D0A002A535749E2
:20E600002A0D0A002A535749322A0D0A002A535749332A0D0A00556E646566696E656420E6
:20E6200073797374656D2063616C6C2024005245504C49434120312036383039204D4F4EE3
:20E6400049544F520D0A0045584954494E472E2E2E0D0A0044554D50494E472E2E2E0D0AF7
:01E6600000B9
:10FFF0000000E420E419E42EE427E3F8E435E0000F
:00E000011F
