:20E0000010CE7FFFCE6FFF86031F8BBDE0ADBDE2C78EE62986013F863BBDE0C78E01001F4F
:20E0200010BDE272BDE269108E00081F10BDE272BDE269BDE1E41F20BDE272BDE2691F10C0
:20E04000BDE272863BBDE0C7BDE2C78602C6808E02003F86018E02003FBDE336BDE33C255A
:20E06000EABDE38B20E53402847FB1000D260A0C228601971E86FF97230C23358234029FFB
:20E0800020A684971F0C1F8601971E35820F200F210F1F3934169E202711D61ED11F250B48
:20E0A000BDE2699623A18526F70C1E35963402867FB7D0128636B7D0118626B7D013BDE05C
:20E0C0008D0F230F2235828109260220C78D973406F6D012C5802BF98A80B7D0123586B64D
:20E0E000D01185802AF9B6D010847F39862EBDE0C70F05BDE0DFBDE0C7A7800C055AC101E5
:20E100002F04810D26ED8600A784393410BDE3B7EC84BDE1C925021CFE35903410BDE3B72E
:20E12000EC81BDE1C9250F3402EC81BDE1C925061F8935021CFE3590BDE37E2509DD06BDF8
:20E14000E37E2502DD0839BDE33C251B81012709BDE10B2517A7A020EEBDE16D1F89A68038
:20E16000A7A05A26F920E01CFE109F0C39341086FF4C6D8026FB35903432A680A1A02603F3
:20E180004D26F735B23436BDE16D1F89A680A7A05A26F935B634028D081F893502444444CA
:20E1A00044840F8B90198940193981302D1881392E05840F1CFE3981412D0B81462E0780FA
:20E1C000418B0A1CFE391A0139BDE1AA34021F98BDE1AA484848481F8935025949594959A9
:20E1E000495949393437C60A34045F4F68656964594910A3662504A3666C656AE426EDED34
:20E2000066326135B734168658BDE0C7863DBDE0C71F10BDE2723596343634018643BDE056
:20E22000C78643BDE0C7863DBDE0C78EE32E108E00083504A680592502862DBDE0C7313F18
:20E2400026F235B634061E898641BDE0C7863DBDE0C71E89BDE27E358634061F98BDE27EFB
:20E2600035863406BDE272358634068620BDE0C735863406BDE27E1F98BDE27E35863406BE
:20E2800017FF1217FE411F9817FE3C358634061F89862E17FE311F9817FE2C17FFCB3586CD
:20E2A00034168E02001F10BDE272863ABDE0C7BDE2695FA6805CD1052708BDE27EBDE2690D
:20E2C00020F1BDE2C735163406860DBDE0C735863412A6802705BDE0C720F735923406DCA0
:20E2E00006BDE27235863436108EE324A680272281252619A6805F6DA5271BA1A527035C44
:20E3000020F58EE3285810AEA5ADA420DF17FDB720DA1CFE35961A013596862516FDA8DC72
:20E320002416FFAC82256DCDE31AE31FE31F454648494E5A56C38E02009F003934249E00DB
:20E3400086009704A68027228122272281202FF41F12313FA68081202EFA6F8230019F002C
:20E360001F219F0296041CFE35A41A0135A4860197041F12A68027E2812227DE20F6BDE35B
:20E380003C2507BDE11B25021CFE39108EE5BDBDE3B76DA427149E02BDE1782705BDE3ADD0
:20E3A00020F0BDE3AD10AE3E6EA41A01391F21BDE16D31A631233934165FA6802715812241
:20E3C000271181612508817B24048020A71F5CD10523E735960F1C0F1D0F1B0A1B390F1B5C
:20E3E000390D1B270B34061F894FD31CDD1C3506394F3F8101260417FED63B8102260417D9
:20E40000FCEA3B34028EE61117FEC5350217FE6E17FEB43B8EE5FF17FEB63B8EE60817FE7F
:20E42000AF3B8EE5E617FEA83B8EE5EE17FEA13B8EE5DE17FE9A3BBDE1382523109E0686BC
:20E440003ABDE28D1F20BDE272BDE26934208D1235208D1CBDE2C7109C0823E31CFE391A80
:20E460000139C608A6A0BDE27EBDE2695A26F539C608A6A081202C02862EBDE0C75A26F20E
:20E4800039BDE37E1F02BDE14725021CFE39BDE33C2509BDE11B25F51F01AD8439BDE13868
:20E4A0002545108E0280BDE147253C9E06301F9F06C6089E0630019F06108E02809C0824C4
:20E4C0001DA680A1A026EC9C082413109C0C25E3BDE2DDBDE2695A26DABDE2C720D3C1080B
:20E4E0002703BDE2C71CFE39BDE1382520108E0280BDE14725179E06108E0280A6A0A780AC
:20E500009C082207109C0C25F320ED1CFE390F10BDE37E2532DD06BDE37E252B9306DD0E95
:20E52000BDE37E2522DD089E06109E089C082715220E0A101F10D30E1F011F20D30E1F029C
:20E54000DC0EBDE5481CFE3934363402A684A7A40D102606300131212004301F313F350299
:20E560008300012AE51CFE35B6BDE37E254EDD06BDE37E25479306DD0EBDE37E253EDD081B
:20E580009E06109E089C08273186089711DC0E3406A680A1A027131F10BDE272BDE2690AD8
:20E5A000112A07BDE2C78608971135068300012ADE961181082703BDE2C71CFE394300E57B
:20E5C000694600E4E84700E48E4800E49D4D00E4375400E50E3A00E4815800E3F1002A4E4C
:20E5E0004D492A0D0A002A4952512A0D0A002A464952512A0D0A002A5357492A0D0A002AC8
:20E60000535749322A0D0A002A535749332A0D0A00556E646566696E656420737973746519
:20E620006D2063616C6C2024005245504C49434120312036383039204D4F4E49544F520DD0
:1CE640000A0045584954494E472E2E2E0D0A0044554D50494E472E2E2E0D0A0046
:10FFF0000000E41BE414E429E422E3F3E430E0002D
:00E000011F
